{
  "contractName": "CertificateRegistry",
  "abi": [
    {
      "anonymous": false,
      "inputs": [
        {
          "indexed": true,
          "internalType": "string",
          "name": "certificateNumber",
          "type": "string"
        },
        {
          "indexed": false,
          "internalType": "string",
          "name": "studentName",
          "type": "string"
        },
        {
          "indexed": false,
          "internalType": "string",
          "name": "companyName",
          "type": "string"
        },
        {
          "indexed": false,
          "internalType": "string",
          "name": "position",
          "type": "string"
        },
        {
          "indexed": false,
          "internalType": "uint256",
          "name": "issuedAt",
          "type": "uint256"
        },
        {
          "indexed": true,
          "internalType": "address",
          "name": "issuedBy",
          "type": "address"
        }
      ],
      "name": "CertificateIssued",
      "type": "event"
    },
    {
      "inputs": [
        {
          "internalType": "string",
          "name": "certificateNumber",
          "type": "string"
        },
        {
          "internalType": "string",
          "name": "studentName",
          "type": "string"
        },
        {
          "internalType": "string",
          "name": "companyName",
          "type": "string"
        },
        {
          "internalType": "string",
          "name": "position",
          "type": "string"
        }
      ],
      "name": "issueCertificate",
      "outputs": [],
      "stateMutability": "nonpayable",
      "type": "function"
    },
    {
      "inputs": [
        {
          "internalType": "string",
          "name": "certificateNumber",
          "type": "string"
        }
      ],
      "name": "verifyCertificate",
      "outputs": [
        {
          "internalType": "string",
          "name": "studentName",
          "type": "string"
        },
        {
          "internalType": "string",
          "name": "companyName",
          "type": "string"
        },
        {
          "internalType": "string",
          "name": "position",
          "type": "string"
        },
        {
          "internalType": "uint256",
          "name": "issuedAt",
          "type": "uint256"
        },
        {
          "internalType": "address",
          "name": "issuedBy",
          "type": "address"
        },
        {
          "internalType": "bool",
          "name": "exists",
          "type": "bool"
        }
      ],
      "stateMutability": "view",
      "type": "function",
      "constant": true
    },
    {
      "inputs": [],
      "name": "totalCertificates",
      "outputs": [
        {
          "internalType": "uint256",
          "name": "",
          "type": "uint256"
        }
      ],
      "stateMutability": "view",
      "type": "function",
      "constant": true
    },
    {
      "inputs": [
        {
          "internalType": "uint256",
          "name": "index",
          "type": "uint256"
        }
      ],
      "name": "certificateAt",
      "outputs": [
        {
          "internalType": "string",
          "name": "",
          "type": "string"
        }
      ],
      "stateMutability": "view",
      "type": "function",
      "constant": true
    }
  ],
  "bytecode": "0x608060405234801561001057600080fd5b50610d30806100206000396000f3fe608060405234801561001057600080fd5b506004361061004c5760003560e01c8063596b772f146100515780635f6622e314610067578063818a2994146100875780638b23d8751461009c575b600080fd5b6001546040519081526020015b60405180910390f35b61007a61007536600461080f565b6100c1565b60405161005e919061086e565b61009a6100953660046108d1565b6101d8565b005b6100af6100aa366004610995565b6105f2565b60405161005e969594939291906109d7565b600154606090821061012b5760405162461bcd60e51b815260206004820152602860248201527f436572746966696361746552656769737472793a20696e646578206f7574206f6044820152676620626f756e647360c01b60648201526084015b60405180910390fd5b6001828154811061013e5761013e610a3a565b90600052602060002001805461015390610a50565b80601f016020809104026020016040519081016040528092919081815260200182805461017f90610a50565b80156101cc5780601f106101a1576101008083540402835291602001916101cc565b820191906000526020600020905b8154815290600101906020018083116101af57829003601f168201915b50505050509050919050565b600088886040516101ea929190610a8a565b9081526040519081900360200190206005015460ff600160a01b90910416156102715760405162461bcd60e51b815260206004820152603360248201527f436572746966696361746552656769737472793a20636572746966696361746560448201527208185b1c9958591e481c9959da5cdd195c9959606a1b6064820152608401610122565b866102d45760405162461bcd60e51b815260206004820152602d60248201527f436572746966696361746552656769737472793a20656d70747920636572746960448201526c3334b1b0ba3290373ab6b132b960991b6064820152608401610122565b846103315760405162461bcd60e51b815260206004820152602760248201527f436572746966696361746552656769737472793a20656d7074792073747564656044820152666e74206e616d6560c81b6064820152608401610122565b8261038e5760405162461bcd60e51b815260206004820152602760248201527f436572746966696361746552656769737472793a20656d70747920636f6d70616044820152666e79206e616d6560c81b6064820152608401610122565b6040518060e0016040528089898080601f016020809104026020016040519081016040528093929190818152602001838380828437600092019190915250505090825250604080516020601f8a0181900481028201810190925288815291810191908990899081908401838280828437600092019190915250505090825250604080516020601f880181900481028201810190925286815291810191908790879081908401838280828437600092019190915250505090825250604080516020601f860181900481028201810190925284815291810191908590859081908401838280828437600092018290525093855250504260208401525033604080840191909152600160609093019290925290516104ac908b908b90610a8a565b908152604051908190036020019020815181906104c99082610aff565b50602082015160018201906104de9082610aff565b50604082015160028201906104f39082610aff565b50606082015160038201906105089082610aff565b506080820151600482015560a08201516005909101805460c0909301511515600160a01b026001600160a81b03199093166001600160a01b03909216919091179190911790556001805480820182556000919091527fb10e2d527612073b26eecdfd717e6a320cf44b4afac2b0732d9fcbe2b7fa0cf60161058a888a83610bbf565b50604051339061059d908a908a90610a8a565b60405180910390207fe18481c4879ace9edc146c34a8b1d2130dd90e6acc6e579204db1f307cbf7d50888888888888426040516105e09796959493929190610ca9565b60405180910390a35050505050505050565b60608060606000806000806000898960405161060f929190610a8a565b90815260405190819003602001902060048101546005820154600183018054939450926002850192600386019290916001600160a01b0382169160ff600160a01b9091041690869061066090610a50565b80601f016020809104026020016040519081016040528092919081815260200182805461068c90610a50565b80156106d95780601f106106ae576101008083540402835291602001916106d9565b820191906000526020600020905b8154815290600101906020018083116106bc57829003601f168201915b505050505095508480546106ec90610a50565b80601f016020809104026020016040519081016040528092919081815260200182805461071890610a50565b80156107655780601f1061073a57610100808354040283529160200191610765565b820191906000526020600020905b81548152906001019060200180831161074857829003601f168201915b5050505050945083805461077890610a50565b80601f01602080910402602001604051908101604052809291908181526020018280546107a490610a50565b80156107f15780601f106107c6576101008083540402835291602001916107f1565b820191906000526020600020905b8154815290600101906020018083116107d457829003601f168201915b50505050509350965096509650965096509650509295509295509295565b60006020828403121561082157600080fd5b5035919050565b6000815180845260005b8181101561084e57602081850181015186830182015201610832565b506000602082860101526020601f19601f83011685010191505092915050565b6020815260006108816020830184610828565b9392505050565b60008083601f84011261089a57600080fd5b50813567ffffffffffffffff8111156108b257600080fd5b6020830191508360208285010111156108ca57600080fd5b9250929050565b6000806000806000806000806080898b0312156108ed57600080fd5b883567ffffffffffffffff8082111561090557600080fd5b6109118c838d01610888565b909a50985060208b013591508082111561092a57600080fd5b6109368c838d01610888565b909850965060408b013591508082111561094f57600080fd5b61095b8c838d01610888565b909650945060608b013591508082111561097457600080fd5b506109818b828c01610888565b999c989b5096995094979396929594505050565b600080602083850312156109a857600080fd5b823567ffffffffffffffff8111156109bf57600080fd5b6109cb85828601610888565b90969095509350505050565b60c0815260006109ea60c0830189610828565b82810360208401526109fc8189610828565b90508281036040840152610a108188610828565b606084019690965250506001600160a01b03929092166080830152151560a0909101529392505050565b634e487b7160e01b600052603260045260246000fd5b600181811c90821680610a6457607f821691505b602082108103610a8457634e487b7160e01b600052602260045260246000fd5b50919050565b8183823760009101908152919050565b634e487b7160e01b600052604160045260246000fd5b601f821115610afa57600081815260208120601f850160051c81016020861015610ad75750805b601f850160051c820191505b81811015610af657828155600101610ae3565b5050505b505050565b815167ffffffffffffffff811115610b1957610b19610a9a565b610b2d81610b278454610a50565b84610ab0565b602080601f831160018114610b625760008415610b4a5750858301515b600019600386901b1c1916600185901b178555610af6565b600085815260208120601f198616915b82811015610b9157888601518255948401946001909101908401610b72565b5085821015610baf5787850151600019600388901b60f8161c191681555b5050505050600190811b01905550565b67ffffffffffffffff831115610bd757610bd7610a9a565b610beb83610be58354610a50565b83610ab0565b6000601f841160018114610c1f5760008515610c075750838201355b600019600387901b1c1916600186901b178355610c79565b600083815260209020601f19861690835b82811015610c505786850135825560209485019460019092019101610c30565b5086821015610c6d5760001960f88860031b161c19848701351681555b505060018560011b0183555b5050505050565b81835281816020850137506000828201602090810191909152601f909101601f19169091010190565b608081526000610cbd60808301898b610c80565b8281036020840152610cd081888a610c80565b90508281036040840152610ce5818688610c80565b9150508260608301529897505050505050505056fea2646970667358221220b30876617062db26b9ac33ef474fb5c926905c0850369fc6777adf7c59af3eee64736f6c63430008130033",
  "immutableReferences": {},
  "source": "// SPDX-License-Identifier: MIT\r\npragma solidity ^0.8.19;\r\n\r\n/**\r\n * @title CertificateRegistry\r\n * @notice Stores internship certificates on the Ethereum blockchain (Ganache local)\r\n * @dev Each certificate is registered once and cannot be modified (immutability)\r\n */\r\ncontract CertificateRegistry {\r\n\r\n    struct Certificate {\r\n        string  certificateNumber;\r\n        string  studentName;\r\n        string  companyName;\r\n        string  position;\r\n        uint256 issuedAt;       // Unix timestamp\r\n        address issuedBy;       // Company wallet address\r\n        bool    exists;\r\n    }\r\n\r\n    // certificateNumber => Certificate data\r\n    mapping(string => Certificate) private certificates;\r\n\r\n    // Ordered list for enumeration\r\n    string[] private certificateNumbers;\r\n\r\n    // ── Events ─────────────────────────────────────────────────────────────────\r\n    event CertificateIssued(\r\n        string  indexed certificateNumber,\r\n        string          studentName,\r\n        string          companyName,\r\n        string          position,\r\n        uint256         issuedAt,\r\n        address indexed issuedBy\r\n    );\r\n\r\n    // ── Write Functions ────────────────────────────────────────────────────────\r\n\r\n    /**\r\n     * @notice Register a new internship certificate on-chain.\r\n     * @dev Reverts if the certificateNumber was already registered.\r\n     * @param certificateNumber Unique certificate ID (e.g. \"CERT-1234567890-AB12CD34\")\r\n     * @param studentName       Full name of the intern\r\n     * @param companyName       Name of the issuing company\r\n     * @param position          Job title / internship position\r\n     */\r\n    function issueCertificate(\r\n        string calldata certificateNumber,\r\n        string calldata studentName,\r\n        string calldata companyName,\r\n        string calldata position\r\n    ) external {\r\n        require(\r\n            !certificates[certificateNumber].exists,\r\n            \"CertificateRegistry: certificate already registered\"\r\n        );\r\n        require(bytes(certificateNumber).length > 0, \"CertificateRegistry: empty certificate number\");\r\n        require(bytes(studentName).length > 0, \"CertificateRegistry: empty student name\");\r\n        require(bytes(companyName).length > 0, \"CertificateRegistry: empty company name\");\r\n\r\n        certificates[certificateNumber] = Certificate({\r\n            certificateNumber: certificateNumber,\r\n            studentName:       studentName,\r\n            companyName:       companyName,\r\n            position:          position,\r\n            issuedAt:          block.timestamp,\r\n            issuedBy:          msg.sender,\r\n            exists:            true\r\n        });\r\n\r\n        certificateNumbers.push(certificateNumber);\r\n\r\n        emit CertificateIssued(\r\n            certificateNumber,\r\n            studentName,\r\n            companyName,\r\n            position,\r\n            block.timestamp,\r\n            msg.sender\r\n        );\r\n    }\r\n\r\n    // ── Read Functions ─────────────────────────────────────────────────────────\r\n\r\n    /**\r\n     * @notice Retrieve certificate data by certificate number.\r\n     * @param certificateNumber The unique certificate ID to look up.\r\n     * @return studentName  Full name of the intern\r\n     * @return companyName  Name of the issuing company\r\n     * @return position     Internship position\r\n     * @return issuedAt     Issue timestamp (Unix seconds)\r\n     * @return issuedBy     Ethereum address that issued the certificate\r\n     * @return exists       True if the certificate is registered on-chain\r\n     */\r\n    function verifyCertificate(string calldata certificateNumber)\r\n        external\r\n        view\r\n        returns (\r\n            string  memory studentName,\r\n            string  memory companyName,\r\n            string  memory position,\r\n            uint256        issuedAt,\r\n            address        issuedBy,\r\n            bool           exists\r\n        )\r\n    {\r\n        Certificate storage cert = certificates[certificateNumber];\r\n        return (\r\n            cert.studentName,\r\n            cert.companyName,\r\n            cert.position,\r\n            cert.issuedAt,\r\n            cert.issuedBy,\r\n            cert.exists\r\n        );\r\n    }\r\n\r\n    /**\r\n     * @notice Returns total number of certificates registered on this contract.\r\n     */\r\n    function totalCertificates() external view returns (uint256) {\r\n        return certificateNumbers.length;\r\n    }\r\n\r\n    /**\r\n     * @notice Returns certificate number at a given index (for enumeration).\r\n     */\r\n    function certificateAt(uint256 index) external view returns (string memory) {\r\n        require(index < certificateNumbers.length, \"CertificateRegistry: index out of bounds\");\r\n        return certificateNumbers[index];\r\n    }\r\n}\r\n",
  "sourcePath": "C:\\Users\\dodso\\Desktop\\evaluation-system-main\\blockchain\\contracts\\CertificateRegistry.sol",
  "compiler": {
    "name": "solc",
    "version": "0.8.19+commit.7dd6d404.Emscripten.clang"
  },
  "schemaVersion": "3.4.16",
  "updatedAt": "2026-03-24T21:52:03.619Z",
  "networkType": "ethereum",
  "devdoc": {
    "details": "Each certificate is registered once and cannot be modified (immutability)",
    "kind": "dev",
    "methods": {
      "issueCertificate(string,string,string,string)": {
        "details": "Reverts if the certificateNumber was already registered.",
        "params": {
          "certificateNumber": "Unique certificate ID (e.g. \"CERT-1234567890-AB12CD34\")",
          "companyName": "Name of the issuing company",
          "position": "Job title / internship position",
          "studentName": "Full name of the intern"
        }
      },
      "verifyCertificate(string)": {
        "params": {
          "certificateNumber": "The unique certificate ID to look up."
        },
        "returns": {
          "companyName": " Name of the issuing company",
          "exists": "      True if the certificate is registered on-chain",
          "issuedAt": "    Issue timestamp (Unix seconds)",
          "issuedBy": "    Ethereum address that issued the certificate",
          "position": "    Internship position",
          "studentName": " Full name of the intern"
        }
      }
    },
    "title": "CertificateRegistry",
    "version": 1
  },
  "userdoc": {
    "kind": "user",
    "methods": {
      "certificateAt(uint256)": {
        "notice": "Returns certificate number at a given index (for enumeration)."
      },
      "issueCertificate(string,string,string,string)": {
        "notice": "Register a new internship certificate on-chain."
      },
      "totalCertificates()": {
        "notice": "Returns total number of certificates registered on this contract."
      },
      "verifyCertificate(string)": {
        "notice": "Retrieve certificate data by certificate number."
      }
    },
    "notice": "Stores internship certificates on the Ethereum blockchain (Ganache local)",
    "version": 1
  }
}